{
  "contractName": "ItemManager",
  "abi": [
    {
      "anonymous": false,
      "inputs": [
        {
          "indexed": false,
          "internalType": "uint256",
          "name": "_itemIndex",
          "type": "uint256"
        },
        {
          "indexed": false,
          "internalType": "uint256",
          "name": "_step",
          "type": "uint256"
        },
        {
          "indexed": false,
          "internalType": "address",
          "name": "_address",
          "type": "address"
        }
      ],
      "name": "SupplyChainStep",
      "type": "event"
    },
    {
      "inputs": [],
      "name": "_owner",
      "outputs": [
        {
          "internalType": "address",
          "name": "",
          "type": "address"
        }
      ],
      "stateMutability": "view",
      "type": "function"
    },
    {
      "inputs": [],
      "name": "isOwner",
      "outputs": [
        {
          "internalType": "bool",
          "name": "",
          "type": "bool"
        }
      ],
      "stateMutability": "view",
      "type": "function"
    },
    {
      "inputs": [
        {
          "internalType": "uint256",
          "name": "",
          "type": "uint256"
        }
      ],
      "name": "items",
      "outputs": [
        {
          "internalType": "contract Item",
          "name": "_item",
          "type": "address"
        },
        {
          "internalType": "enum ItemManager.SupplyChainSteps",
          "name": "_step",
          "type": "uint8"
        },
        {
          "internalType": "uint256",
          "name": "_itemPrice",
          "type": "uint256"
        },
        {
          "internalType": "string",
          "name": "_identifier",
          "type": "string"
        }
      ],
      "stateMutability": "view",
      "type": "function"
    },
    {
      "inputs": [
        {
          "internalType": "string",
          "name": "_identifier",
          "type": "string"
        },
        {
          "internalType": "uint256",
          "name": "_priceInWei",
          "type": "uint256"
        }
      ],
      "name": "createItem",
      "outputs": [],
      "stateMutability": "nonpayable",
      "type": "function"
    },
    {
      "inputs": [
        {
          "internalType": "uint256",
          "name": "_index",
          "type": "uint256"
        }
      ],
      "name": "triggerPayment",
      "outputs": [],
      "stateMutability": "payable",
      "type": "function"
    },
    {
      "inputs": [
        {
          "internalType": "uint256",
          "name": "_index",
          "type": "uint256"
        }
      ],
      "name": "triggerDelievery",
      "outputs": [],
      "stateMutability": "nonpayable",
      "type": "function"
    }
  ],
  "bytecode": "0x6080604052336000806101000a81548173ffffffffffffffffffffffffffffffffffffffff021916908373ffffffffffffffffffffffffffffffffffffffff160217905550611242806100536000396000f3fe6080604052600436106100555760003560e01c80632e67f7751461005a578063800fb83f146100955780638c551742146100c35780638f32d59b14610195578063b2bdfa7b146101c4578063bfb231d21461021b575b600080fd5b34801561006657600080fd5b506100936004803603602081101561007d57600080fd5b810190808035906020019092919050505061031e565b005b6100c1600480360360208110156100ab57600080fd5b810190808035906020019092919050505061053c565b005b3480156100cf57600080fd5b50610193600480360360408110156100e657600080fd5b810190808035906020019064010000000081111561010357600080fd5b82018360208201111561011557600080fd5b8035906020019184600183028401116401000000008311171561013757600080fd5b91908080601f016020809104026020016040519081016040528093929190818152602001838380828437600081840152601f19601f8201169050808301925050505050505091929192908035906020019092919050505061085e565b005b3480156101a157600080fd5b506101aa610ac8565b604051808215151515815260200191505060405180910390f35b3480156101d057600080fd5b506101d9610b1f565b604051808273ffffffffffffffffffffffffffffffffffffffff1673ffffffffffffffffffffffffffffffffffffffff16815260200191505060405180910390f35b34801561022757600080fd5b506102546004803603602081101561023e57600080fd5b8101908080359060200190929190505050610b44565b604051808573ffffffffffffffffffffffffffffffffffffffff1673ffffffffffffffffffffffffffffffffffffffff16815260200184600281111561029657fe5b60ff16815260200183815260200180602001828103825283818151815260200191508051906020019080838360005b838110156102e05780820151818401526020810190506102c5565b50505050905090810190601f16801561030d5780820380516001836020036101000a031916815260200191505b509550505050505060405180910390f35b610326610ac8565b61037b576040517f08c379a00000000000000000000000000000000000000000000000000000000081526004018080602001828103825260218152602001806111c96021913960400191505060405180910390fd5b6001600281111561038857fe5b6001600083815260200190815260200160002060000160149054906101000a900460ff1660028111156103b757fe5b1461042a576040517f08c379a000000000000000000000000000000000000000000000000000000000815260040180806020018281038252601f8152602001807f4974656d206973206675727468657220696e20737570706c7920636861696e0081525060200191505060405180910390fd5b60026001600083815260200190815260200160002060000160146101000a81548160ff0219169083600281111561045d57fe5b02179055507fa4035636e99f06b7651a604c1019fa4e8779fe68ef27eeb74dff2de348f6199b816001600084815260200190815260200160002060000160149054906101000a900460ff1660028111156104b357fe5b6001600085815260200190815260200160002060000160009054906101000a900473ffffffffffffffffffffffffffffffffffffffff16604051808481526020018381526020018273ffffffffffffffffffffffffffffffffffffffff1673ffffffffffffffffffffffffffffffffffffffff168152602001935050505060405180910390a150565b60006001600083815260200190815260200160002060000160009054906101000a900473ffffffffffffffffffffffffffffffffffffffff1690503373ffffffffffffffffffffffffffffffffffffffff168173ffffffffffffffffffffffffffffffffffffffff16146105fb576040517f08c379a000000000000000000000000000000000000000000000000000000000815260040180806020018281038252602b81526020018061119e602b913960400191505060405180910390fd5b348173ffffffffffffffffffffffffffffffffffffffff16633c8da5886040518163ffffffff1660e01b815260040160206040518083038186803b15801561064257600080fd5b505afa158015610656573d6000803e3d6000fd5b505050506040513d602081101561066c57600080fd5b8101908080519060200190929190505050146106f0576040517f08c379a00000000000000000000000000000000000000000000000000000000081526004018080602001828103825260138152602001807f4e6f742066756c6c79207061696420796574210000000000000000000000000081525060200191505060405180910390fd5b600060028111156106fd57fe5b6001600084815260200190815260200160002060000160149054906101000a900460ff16600281111561072c57fe5b14610782576040517f08c379a00000000000000000000000000000000000000000000000000000000081526004018080602001828103825260238152602001806111ea6023913960400191505060405180910390fd5b600180600084815260200190815260200160002060000160146101000a81548160ff021916908360028111156107b457fe5b02179055507fa4035636e99f06b7651a604c1019fa4e8779fe68ef27eeb74dff2de348f6199b826001600085815260200190815260200160002060000160149054906101000a900460ff16600281111561080a57fe5b83604051808481526020018381526020018273ffffffffffffffffffffffffffffffffffffffff1673ffffffffffffffffffffffffffffffffffffffff168152602001935050505060405180910390a15050565b610866610ac8565b6108bb576040517f08c379a00000000000000000000000000000000000000000000000000000000081526004018080602001828103825260218152602001806111c96021913960400191505060405180910390fd5b600030826002546040516108ce90610c39565b808473ffffffffffffffffffffffffffffffffffffffff1673ffffffffffffffffffffffffffffffffffffffff1681526020018381526020018281526020019350505050604051809103906000f08015801561092e573d6000803e3d6000fd5b5090508060016000600254815260200190815260200160002060000160006101000a81548173ffffffffffffffffffffffffffffffffffffffff021916908373ffffffffffffffffffffffffffffffffffffffff1602179055508160016000600254815260200190815260200160002060010181905550600060016000600254815260200190815260200160002060000160146101000a81548160ff021916908360028111156109da57fe5b0217905550826001600060025481526020019081526020016000206002019080519060200190610a0b929190610c46565b507fa4035636e99f06b7651a604c1019fa4e8779fe68ef27eeb74dff2de348f6199b60025460016000600254815260200190815260200160002060000160149054906101000a900460ff166002811115610a6157fe5b83604051808481526020018381526020018273ffffffffffffffffffffffffffffffffffffffff1673ffffffffffffffffffffffffffffffffffffffff168152602001935050505060405180910390a1600260008154809291906001019190505550505050565b60008060009054906101000a900473ffffffffffffffffffffffffffffffffffffffff1673ffffffffffffffffffffffffffffffffffffffff163373ffffffffffffffffffffffffffffffffffffffff1614905090565b6000809054906101000a900473ffffffffffffffffffffffffffffffffffffffff1681565b60016020528060005260406000206000915090508060000160009054906101000a900473ffffffffffffffffffffffffffffffffffffffff16908060000160149054906101000a900460ff1690806001015490806002018054600181600116156101000203166002900480601f016020809104026020016040519081016040528092919081815260200182805460018160011615610100020316600290048015610c2f5780601f10610c0457610100808354040283529160200191610c2f565b820191906000526020600020905b815481529060010190602001808311610c1257829003601f168201915b5050505050905084565b6104b280610cec83390190565b828054600181600116156101000203166002900490600052602060002090601f016020900481019282601f10610c8757805160ff1916838001178555610cb5565b82800160010185558215610cb5579182015b82811115610cb4578251825591602001919060010190610c99565b5b509050610cc29190610cc6565b5090565b610ce891905b80821115610ce4576000816000905550600101610ccc565b5090565b9056fe608060405234801561001057600080fd5b506040516104b23803806104b28339818101604052606081101561003357600080fd5b81019080805190602001909291908051906020019092919080519060200190929190505050816000819055508060028190555082600360006101000a81548173ffffffffffffffffffffffffffffffffffffffff021916908373ffffffffffffffffffffffffffffffffffffffff1602179055505050506103f9806100b96000396000f3fe6080604052600436106100385760003560e01c80632986c0e51461030e5780633c8da5881461033957806383d12eef14610364576102ff565b366102ff576000543414610097576040517f08c379a00000000000000000000000000000000000000000000000000000000081526004018080602001828103825260228152602001806103a26022913960400191505060405180910390fd5b60006001541461010f576040517f08c379a00000000000000000000000000000000000000000000000000000000081526004018080602001828103825260158152602001807f4974656d20697320616c726561647920706169642e000000000000000000000081525060200191505060405180910390fd5b346001600082825401925050819055506000600360009054906101000a900473ffffffffffffffffffffffffffffffffffffffff1673ffffffffffffffffffffffffffffffffffffffff1634600254604051602401808281526020019150506040516020818303038152906040527f800fb83f000000000000000000000000000000000000000000000000000000007bffffffffffffffffffffffffffffffffffffffffffffffffffffffff19166020820180517bffffffffffffffffffffffffffffffffffffffffffffffffffffffff83818316178352505050506040518082805190602001908083835b6020831061021e57805182526020820191506020810190506020830392506101fb565b6001836020036101000a03801982511681845116808217855250505050505090500191505060006040518083038185875af1925050503d8060008114610280576040519150601f19603f3d011682016040523d82523d6000602084013e610285565b606091505b50509050806102fc576040517f08c379a00000000000000000000000000000000000000000000000000000000081526004018080602001828103825260168152602001807f44656c69657665727920646964206e6f7420776f726b0000000000000000000081525060200191505060405180910390fd5b50005b34801561030b57600080fd5b50005b34801561031a57600080fd5b5061032361038f565b6040518082815260200191505060405180910390f35b34801561034557600080fd5b5061034e610395565b6040518082815260200191505060405180910390f35b34801561037057600080fd5b5061037961039b565b6040518082815260200191505060405180910390f35b60025481565b60005481565b6001548156fe576520646f6e277420737570706f727473207061727469616c207061796d656e7473a264697066735822122084ed9f7f6230d8733ee34171bb38a6f31ec5f66a6a7dae33a4e4200ecf7db0c764736f6c634300060000334f6e6c79204974656d732061726520616c6c6f77656420746f20757064617465207468656d73656c7665734f776e61626c653a2063616c6c6573206973206e6f7420746865206f776e6572214974656d206973206675727468657220696e2074686520737570706c7920636861696ea264697066735822122047ee25f8c71616ce159206cccac689653437a4dabd3c59f598d951a9d360c97c64736f6c63430006000033",
  "source": "// SPDX-License-Identifier: MIT\r\npragma solidity ^0.6.0;\r\nimport \"./Ownable.sol\";\r\nimport \"./Item.sol\";\r\n\r\n/* https://ethereum-blockchain-developer.com/050-supply-chain-project/01-initial-itemsmanager */\r\ncontract ItemManager is Ownable {\r\n    \r\n    enum SupplyChainSteps {Created, Paid, Delievered}\r\n    \r\n    struct S_Item {\r\n        Item _item;\r\n        ItemManager.SupplyChainSteps _step;\r\n        uint _itemPrice;\r\n        string _identifier;\r\n    }\r\n    \r\n    mapping(uint => S_Item) public items;\r\n    uint index;\r\n    \r\n    event SupplyChainStep(uint _itemIndex, uint _step, address _address);\r\n    \r\n    function createItem(string memory _identifier, uint _priceInWei) public onlyOwner{\r\n        Item item = new Item(this, _priceInWei, index);\r\n        items[index]._item = item;\r\n        items[index]._itemPrice = _priceInWei;\r\n        items[index]._step = SupplyChainSteps.Created;\r\n        items[index]._identifier = _identifier;\r\n        emit SupplyChainStep(index, uint(items[index]._step), address(item));\r\n        index++;\r\n    }\r\n    \r\n    /*\r\n        The param _index is for items[index] for which payment is triggered\r\n    */\r\n    function triggerPayment(uint _index) public payable{\r\n        Item item = items[_index]._item;\r\n        require(address(item) == msg.sender, \"Only Items are allowed to update themselves\");\r\n        require(item.priceInWei()==msg.value,\"Not fully paid yet!\");\r\n        require(items[_index]._step == SupplyChainSteps.Created, \"Item is further in the supply chain\");\r\n        items[_index]._step = SupplyChainSteps.Paid;\r\n        emit SupplyChainStep(_index, uint(items[_index]._step), address(item));\r\n    }\r\n    \r\n    function triggerDelievery(uint _index) public onlyOwner{\r\n        require(items[_index]._step == SupplyChainSteps.Paid, \"Item is further in supply chain\");\r\n        items[_index]._step = SupplyChainSteps.Delievered;\r\n        emit SupplyChainStep(_index, uint(items[_index]._step), address(items[_index]._item));\r\n    }\r\n}",
  "sourcePath": "D:\\Learn\\Blockchain\\Ethereum\\Solidity\\Programs\\LatestNew\\Project-2-SupplyChain-ts\\contracts\\ItemManager.sol",
  "compiler": {
    "name": "solc",
    "version": "0.6.0+commit.26b70077.Emscripten.clang"
  },
  "schemaVersion": "3.4.3",
  "updatedAt": "2021-09-02T15:54:20.970Z",
  "devdoc": {
    "methods": {}
  },
  "userdoc": {
    "methods": {}
  }
}